{
  "contractName": "SupplyChain",
  "abi": [
    {
      "inputs": [],
      "stateMutability": "nonpayable",
      "type": "constructor"
    },
    {
      "anonymous": false,
      "inputs": [
        {
          "components": [
            {
              "internalType": "address",
              "name": "sender",
              "type": "address"
            },
            {
              "internalType": "address",
              "name": "currentOwner",
              "type": "address"
            },
            {
              "internalType": "address",
              "name": "nextOwner",
              "type": "address"
            },
            {
              "internalType": "string",
              "name": "tracking",
              "type": "string"
            },
            {
              "internalType": "string",
              "name": "locationCreated",
              "type": "string"
            },
            {
              "internalType": "bool",
              "name": "delivered",
              "type": "bool"
            }
          ],
          "indexed": false,
          "internalType": "struct SupplyChain.Parcel",
          "name": "parcel",
          "type": "tuple"
        }
      ],
      "name": "ParcelAdd",
      "type": "event"
    },
    {
      "inputs": [
        {
          "internalType": "uint256",
          "name": "",
          "type": "uint256"
        }
      ],
      "name": "allHubs",
      "outputs": [
        {
          "internalType": "address",
          "name": "hubID",
          "type": "address"
        },
        {
          "internalType": "string",
          "name": "hubName",
          "type": "string"
        },
        {
          "internalType": "string",
          "name": "hubLocation",
          "type": "string"
        }
      ],
      "stateMutability": "view",
      "type": "function"
    },
    {
      "inputs": [
        {
          "internalType": "uint256",
          "name": "",
          "type": "uint256"
        }
      ],
      "name": "allParcels",
      "outputs": [
        {
          "internalType": "address",
          "name": "sender",
          "type": "address"
        },
        {
          "internalType": "address",
          "name": "currentOwner",
          "type": "address"
        },
        {
          "internalType": "address",
          "name": "nextOwner",
          "type": "address"
        },
        {
          "internalType": "string",
          "name": "tracking",
          "type": "string"
        },
        {
          "internalType": "string",
          "name": "locationCreated",
          "type": "string"
        },
        {
          "internalType": "bool",
          "name": "delivered",
          "type": "bool"
        }
      ],
      "stateMutability": "view",
      "type": "function"
    },
    {
      "inputs": [
        {
          "internalType": "uint256",
          "name": "",
          "type": "uint256"
        }
      ],
      "name": "allSenders",
      "outputs": [
        {
          "internalType": "address",
          "name": "senderID",
          "type": "address"
        },
        {
          "internalType": "string",
          "name": "senderName",
          "type": "string"
        },
        {
          "internalType": "string",
          "name": "senderLocation",
          "type": "string"
        }
      ],
      "stateMutability": "view",
      "type": "function"
    },
    {
      "inputs": [
        {
          "internalType": "string",
          "name": "_roles",
          "type": "string"
        },
        {
          "internalType": "string",
          "name": "_name",
          "type": "string"
        },
        {
          "internalType": "string",
          "name": "_location",
          "type": "string"
        }
      ],
      "name": "registration",
      "outputs": [],
      "stateMutability": "nonpayable",
      "type": "function"
    },
    {
      "inputs": [
        {
          "internalType": "string",
          "name": "_trackingID",
          "type": "string"
        },
        {
          "internalType": "string",
          "name": "_location",
          "type": "string"
        },
        {
          "internalType": "address",
          "name": "_nextOwner",
          "type": "address"
        }
      ],
      "name": "addParcel",
      "outputs": [],
      "stateMutability": "nonpayable",
      "type": "function"
    },
    {
      "inputs": [
        {
          "internalType": "string",
          "name": "_trackingID",
          "type": "string"
        },
        {
          "internalType": "address",
          "name": "_nextOwner",
          "type": "address"
        }
      ],
      "name": "changeofOwnership",
      "outputs": [],
      "stateMutability": "nonpayable",
      "type": "function"
    },
    {
      "inputs": [
        {
          "internalType": "string",
          "name": "_tracking",
          "type": "string"
        }
      ],
      "name": "viewParcelinfo",
      "outputs": [
        {
          "internalType": "string",
          "name": "",
          "type": "string"
        },
        {
          "internalType": "string",
          "name": "",
          "type": "string"
        },
        {
          "internalType": "string",
          "name": "",
          "type": "string"
        },
        {
          "internalType": "string",
          "name": "",
          "type": "string"
        },
        {
          "internalType": "string",
          "name": "",
          "type": "string"
        },
        {
          "internalType": "bool",
          "name": "",
          "type": "bool"
        }
      ],
      "stateMutability": "nonpayable",
      "type": "function"
    },
    {
      "inputs": [
        {
          "internalType": "address",
          "name": "_target",
          "type": "address"
        }
      ],
      "name": "getAddressName",
      "outputs": [
        {
          "internalType": "string",
          "name": "",
          "type": "string"
        }
      ],
      "stateMutability": "nonpayable",
      "type": "function"
    }
  ],
  "bytecode": "0x608060405260006004556000600555600060065534801561001f57600080fd5b5033600360006101000a81548173ffffffffffffffffffffffffffffffffffffffff021916908373ffffffffffffffffffffffffffffffffffffffff1602179055506121b4806100706000396000f3fe608060405234801561001057600080fd5b50600436106100a5576000357c010000000000000000000000000000000000000000000000000000000090048063ce2ad74611610078578063ce2ad74614610149578063d18f398214610165578063dd2e413414610197578063f0f1fcc9146101c7576100a5565b806303bf33cb146100aa5780630753afdf146100c65780635fb0a418146100e257806395b5763114610114575b600080fd5b6100c460048036038101906100bf91906114cd565b6101fc565b005b6100e060048036038101906100db9190611529565b6103b3565b005b6100fc60048036038101906100f79190611606565b610603565b60405161010b939291906116c1565b60405180910390f35b61012e60048036038101906101299190611606565b61076d565b60405161014096959493929190611721565b60405180910390f35b610163600480360381019061015e9190611790565b610936565b005b61017f600480360381019061017a9190611606565b610b6a565b60405161018e939291906116c1565b60405180910390f35b6101b160048036038101906101ac919061181b565b610cd4565b6040516101be9190611848565b60405180910390f35b6101e160048036038101906101dc919061186a565b610fc0565b6040516101f3969594939291906118b3565b60405180910390f35b60005b6000805490508110156103ae578260405160200161021d9190611973565b60405160208183030381529060405280519060200120600082815481106102475761024661198a565b5b90600052602060002090600602016003016040516020016102689190611ab1565b604051602081830303815290604052805190602001200361039b57600081815481106102975761029661198a565b5b906000526020600020906006020160020160009054906101000a900473ffffffffffffffffffffffffffffffffffffffff1673ffffffffffffffffffffffffffffffffffffffff163373ffffffffffffffffffffffffffffffffffffffff1614610336576040517f08c379a000000000000000000000000000000000000000000000000000000000815260040161032d90611b14565b60405180910390fd5b816000828154811061034b5761034a61198a565b5b906000526020600020906006020160020160006101000a81548173ffffffffffffffffffffffffffffffffffffffff021916908373ffffffffffffffffffffffffffffffffffffffff1602179055505b80806103a690611b63565b9150506101ff565b505050565b6040516020016103c290611bf7565b60405160208183030381529060405280519060200120836040516020016103e99190611973565b60405160208183030381529060405280519060200120036104da57600160405180606001604052803373ffffffffffffffffffffffffffffffffffffffff16815260200184815260200183815250908060018154018082558091505060019003906000526020600020906003020160009091909190915060008201518160000160006101000a81548173ffffffffffffffffffffffffffffffffffffffff021916908373ffffffffffffffffffffffffffffffffffffffff16021790555060208201518160010190816104bc9190611da9565b5060408201518160020190816104d29190611da9565b5050506105fe565b6040516020016104e990611ec7565b60405160208183030381529060405280519060200120836040516020016105109190611973565b60405160208183030381529060405280519060200120036105fd57600260405180606001604052803373ffffffffffffffffffffffffffffffffffffffff16815260200184815260200183815250908060018154018082558091505060019003906000526020600020906003020160009091909190915060008201518160000160006101000a81548173ffffffffffffffffffffffffffffffffffffffff021916908373ffffffffffffffffffffffffffffffffffffffff16021790555060208201518160010190816105e39190611da9565b5060408201518160020190816105f99190611da9565b5050505b5b505050565b6002818154811061061357600080fd5b90600052602060002090600302016000915090508060000160009054906101000a900473ffffffffffffffffffffffffffffffffffffffff169080600101805461065c906119e8565b80601f0160208091040260200160405190810160405280929190818152602001828054610688906119e8565b80156106d55780601f106106aa576101008083540402835291602001916106d5565b820191906000526020600020905b8154815290600101906020018083116106b857829003601f168201915b5050505050908060020180546106ea906119e8565b80601f0160208091040260200160405190810160405280929190818152602001828054610716906119e8565b80156107635780601f1061073857610100808354040283529160200191610763565b820191906000526020600020905b81548152906001019060200180831161074657829003601f168201915b5050505050905083565b6000818154811061077d57600080fd5b90600052602060002090600602016000915090508060000160009054906101000a900473ffffffffffffffffffffffffffffffffffffffff16908060010160009054906101000a900473ffffffffffffffffffffffffffffffffffffffff16908060020160009054906101000a900473ffffffffffffffffffffffffffffffffffffffff1690806003018054610812906119e8565b80601f016020809104026020016040519081016040528092919081815260200182805461083e906119e8565b801561088b5780601f106108605761010080835404028352916020019161088b565b820191906000526020600020905b81548152906001019060200180831161086e57829003601f168201915b5050505050908060040180546108a0906119e8565b80601f01602080910402602001604051908101604052809291908181526020018280546108cc906119e8565b80156109195780601f106108ee57610100808354040283529160200191610919565b820191906000526020600020905b8154815290600101906020018083116108fc57829003601f168201915b5050505050908060050160009054906101000a900460ff16905086565b60006040518060c001604052803373ffffffffffffffffffffffffffffffffffffffff1681526020013373ffffffffffffffffffffffffffffffffffffffff1681526020018373ffffffffffffffffffffffffffffffffffffffff16815260200185815260200184815260200160001515815250908060018154018082558091505060019003906000526020600020906006020160009091909190915060008201518160000160006101000a81548173ffffffffffffffffffffffffffffffffffffffff021916908373ffffffffffffffffffffffffffffffffffffffff16021790555060208201518160010160006101000a81548173ffffffffffffffffffffffffffffffffffffffff021916908373ffffffffffffffffffffffffffffffffffffffff16021790555060408201518160020160006101000a81548173ffffffffffffffffffffffffffffffffffffffff021916908373ffffffffffffffffffffffffffffffffffffffff1602179055506060820151816003019081610abd9190611da9565b506080820151816004019081610ad39190611da9565b5060a08201518160050160006101000a81548160ff02191690831515021790555050507f44db93a8917e4d5d909d3e12ef1d7983a8e72e6b09ac2365865095ff3ffd7f71600060055481548110610b2d57610b2c61198a565b5b9060005260206000209060060201604051610b4891906120b9565b60405180910390a16001600554610b5f91906120db565b600581905550505050565b60018181548110610b7a57600080fd5b90600052602060002090600302016000915090508060000160009054906101000a900473ffffffffffffffffffffffffffffffffffffffff1690806001018054610bc3906119e8565b80601f0160208091040260200160405190810160405280929190818152602001828054610bef906119e8565b8015610c3c5780601f10610c1157610100808354040283529160200191610c3c565b820191906000526020600020905b815481529060010190602001808311610c1f57829003601f168201915b505050505090806002018054610c51906119e8565b80601f0160208091040260200160405190810160405280929190818152602001828054610c7d906119e8565b8015610cca5780601f10610c9f57610100808354040283529160200191610cca565b820191906000526020600020905b815481529060010190602001808311610cad57829003601f168201915b5050505050905083565b606060005b600080549050811015610e475782604051602001610cf79190612163565b6040516020818303038152906040528051906020012060018281548110610d2157610d2061198a565b5b906000526020600020906003020160000160009054906101000a900473ffffffffffffffffffffffffffffffffffffffff16604051602001610d639190612163565b6040516020818303038152906040528051906020012003610e345760018181548110610d9257610d9161198a565b5b90600052602060002090600302016001018054610dae906119e8565b80601f0160208091040260200160405190810160405280929190818152602001828054610dda906119e8565b8015610e275780601f10610dfc57610100808354040283529160200191610e27565b820191906000526020600020905b815481529060010190602001808311610e0a57829003601f168201915b5050505050915050610fbb565b8080610e3f90611b63565b915050610cd9565b5060005b600280549050811015610fb95782604051602001610e699190612163565b6040516020818303038152906040528051906020012060028281548110610e9357610e9261198a565b5b906000526020600020906003020160000160009054906101000a900473ffffffffffffffffffffffffffffffffffffffff16604051602001610ed59190612163565b6040516020818303038152906040528051906020012003610fa65760028181548110610f0457610f0361198a565b5b90600052602060002090600302016001018054610f20906119e8565b80601f0160208091040260200160405190810160405280929190818152602001828054610f4c906119e8565b8015610f995780601f10610f6e57610100808354040283529160200191610f99565b820191906000526020600020905b815481529060010190602001808311610f7c57829003601f168201915b5050505050915050610fbb565b8080610fb190611b63565b915050610e4b565b505b919050565b6060806060806060600080600090505b60008054905081101561130a5787604051602001610fee9190611973565b60405160208183030381529060405280519060200120600082815481106110185761101761198a565b5b90600052602060002090600602016003016040516020016110399190611ab1565b60405160208183030381529060405280519060200120036112f75760006110a46000838154811061106d5761106c61198a565b5b906000526020600020906006020160000160009054906101000a900473ffffffffffffffffffffffffffffffffffffffff16610cd4565b905060006110f6600084815481106110bf576110be61198a565b5b906000526020600020906006020160010160009054906101000a900473ffffffffffffffffffffffffffffffffffffffff16610cd4565b90506000611148600085815481106111115761111061198a565b5b906000526020600020906006020160020160009054906101000a900473ffffffffffffffffffffffffffffffffffffffff16610cd4565b9050828282600087815481106111615761116061198a565b5b9060005260206000209060060201600301600088815481106111865761118561198a565b5b9060005260206000209060060201600401600089815481106111ab576111aa61198a565b5b906000526020600020906006020160050160009054906101000a900460ff168280546111d6906119e8565b80601f0160208091040260200160405190810160405280929190818152602001828054611202906119e8565b801561124f5780601f106112245761010080835404028352916020019161124f565b820191906000526020600020905b81548152906001019060200180831161123257829003601f168201915b50505050509250818054611262906119e8565b80601f016020809104026020016040519081016040528092919081815260200182805461128e906119e8565b80156112db5780601f106112b0576101008083540402835291602001916112db565b820191906000526020600020905b8154815290600101906020018083116112be57829003601f168201915b505050505091509950995099509950995099505050505061130c565b808061130290611b63565b915050610fd0565b505b91939550919395565b6000604051905090565b600080fd5b600080fd5b600080fd5b600080fd5b6000601f19601f8301169050919050565b7f4e487b7100000000000000000000000000000000000000000000000000000000600052604160045260246000fd5b61137c82611333565b810181811067ffffffffffffffff8211171561139b5761139a611344565b5b80604052505050565b60006113ae611315565b90506113ba8282611373565b919050565b600067ffffffffffffffff8211156113da576113d9611344565b5b6113e382611333565b9050602081019050919050565b82818337600083830152505050565b600061141261140d846113bf565b6113a4565b90508281526020810184848401111561142e5761142d61132e565b5b6114398482856113f0565b509392505050565b600082601f83011261145657611455611329565b5b81356114668482602086016113ff565b91505092915050565b600073ffffffffffffffffffffffffffffffffffffffff82169050919050565b600061149a8261146f565b9050919050565b6114aa8161148f565b81146114b557600080fd5b50565b6000813590506114c7816114a1565b92915050565b600080604083850312156114e4576114e361131f565b5b600083013567ffffffffffffffff81111561150257611501611324565b5b61150e85828601611441565b925050602061151f858286016114b8565b9150509250929050565b6000806000606084860312156115425761154161131f565b5b600084013567ffffffffffffffff8111156115605761155f611324565b5b61156c86828701611441565b935050602084013567ffffffffffffffff81111561158d5761158c611324565b5b61159986828701611441565b925050604084013567ffffffffffffffff8111156115ba576115b9611324565b5b6115c686828701611441565b9150509250925092565b6000819050919050565b6115e3816115d0565b81146115ee57600080fd5b50565b600081359050611600816115da565b92915050565b60006020828403121561161c5761161b61131f565b5b600061162a848285016115f1565b91505092915050565b61163c8161148f565b82525050565b600081519050919050565b600082825260208201905092915050565b60005b8381101561167c578082015181840152602081019050611661565b60008484015250505050565b600061169382611642565b61169d818561164d565b93506116ad81856020860161165e565b6116b681611333565b840191505092915050565b60006060820190506116d66000830186611633565b81810360208301526116e88185611688565b905081810360408301526116fc8184611688565b9050949350505050565b60008115159050919050565b61171b81611706565b82525050565b600060c0820190506117366000830189611633565b6117436020830188611633565b6117506040830187611633565b81810360608301526117628186611688565b905081810360808301526117768185611688565b905061178560a0830184611712565b979650505050505050565b6000806000606084860312156117a9576117a861131f565b5b600084013567ffffffffffffffff8111156117c7576117c6611324565b5b6117d386828701611441565b935050602084013567ffffffffffffffff8111156117f4576117f3611324565b5b61180086828701611441565b9250506040611811868287016114b8565b9150509250925092565b6000602082840312156118315761183061131f565b5b600061183f848285016114b8565b91505092915050565b600060208201905081810360008301526118628184611688565b905092915050565b6000602082840312156118805761187f61131f565b5b600082013567ffffffffffffffff81111561189e5761189d611324565b5b6118aa84828501611441565b91505092915050565b600060c08201905081810360008301526118cd8189611688565b905081810360208301526118e18188611688565b905081810360408301526118f58187611688565b905081810360608301526119098186611688565b9050818103608083015261191d8185611688565b905061192c60a0830184611712565b979650505050505050565b600081905092915050565b600061194d82611642565b6119578185611937565b935061196781856020860161165e565b80840191505092915050565b600061197f8284611942565b915081905092915050565b7f4e487b7100000000000000000000000000000000000000000000000000000000600052603260045260246000fd5b7f4e487b7100000000000000000000000000000000000000000000000000000000600052602260045260246000fd5b60006002820490506001821680611a0057607f821691505b602082108103611a1357611a126119b9565b5b50919050565b60008190508160005260206000209050919050565b60008154611a3b816119e8565b611a458186611937565b94506001821660008114611a605760018114611a7557611aa8565b60ff1983168652811515820286019350611aa8565b611a7e85611a19565b60005b83811015611aa057815481890152600182019150602081019050611a81565b838801955050505b50505092915050565b6000611abd8284611a2e565b915081905092915050565b7f4163636573732044656e69656421000000000000000000000000000000000000600082015250565b6000611afe600e8361164d565b9150611b0982611ac8565b602082019050919050565b60006020820190508181036000830152611b2d81611af1565b9050919050565b7f4e487b7100000000000000000000000000000000000000000000000000000000600052601160045260246000fd5b6000611b6e826115d0565b91507fffffffffffffffffffffffffffffffffffffffffffffffffffffffffffffffff8203611ba057611b9f611b34565b5b600182019050919050565b7f73656e6465720000000000000000000000000000000000000000000000000000600082015250565b6000611be1600683611937565b9150611bec82611bab565b600682019050919050565b6000611c0282611bd4565b9150819050919050565b60006020601f8301049050919050565b60008160020a8302905092915050565b600060088302611c5c7fffffffffffffffffffffffffffffffffffffffffffffffffffffffffffffffff82611c1c565b611c668683611c1c565b95508019841693508086168417925050509392505050565b6000819050919050565b6000611ca3611c9e611c99846115d0565b611c7e565b6115d0565b9050919050565b6000819050919050565b611cbd83611c88565b611cd1611cc982611caa565b848454611c2c565b825550505050565b600090565b611ce6611cd9565b611cf1818484611cb4565b505050565b5b81811015611d1557611d0a600082611cde565b600181019050611cf7565b5050565b601f821115611d5a57611d2b81611a19565b611d3484611c0c565b81016020851015611d43578190505b611d57611d4f85611c0c565b830182611cf6565b50505b505050565b60008160020a8304905092915050565b6000611d8060001984600802611d5f565b1980831691505092915050565b6000611d998383611d6f565b9150826002028217905092915050565b611db282611642565b67ffffffffffffffff811115611dcb57611dca611344565b5b611dd582546119e8565b611de0828285611d19565b600060209050601f831160018114611e135760008415611e01578287015190505b611e0b8582611d8d565b865550611e73565b601f198416611e2186611a19565b60005b82811015611e4957848901518255600182019150602085019450602081019050611e24565b86831015611e665784890151611e62601f891682611d6f565b8355505b6001600288020188555050505b505050505050565b7f6875620000000000000000000000000000000000000000000000000000000000600082015250565b6000611eb1600383611937565b9150611ebc82611e7b565b600382019050919050565b6000611ed282611ea4565b9150819050919050565b6000600182049050919050565b600073ffffffffffffffffffffffffffffffffffffffff82169050919050565b6000611f1c611f1783611edc565b611ee9565b9050919050565b611f2c8161148f565b82525050565b600082825260208201905092915050565b60008154611f50816119e8565b611f5a8186611f32565b94506001821660008114611f755760018114611f8b57611fbe565b60ff198316865281151560200286019350611fbe565b611f9485611a19565b60005b83811015611fb657815481890152600182019150602081019050611f97565b808801955050505b50505092915050565b600060ff82169050919050565b6000611fe7611fe283611edc565b611fc7565b9050919050565b611ff781611706565b82525050565b600060c08301600080840154905061201481611f09565b6120216000870182611f23565b506001840154905061203281611f09565b61203f6020870182611f23565b506002840154905061205081611f09565b61205d6040870182611f23565b506003840185830360608701526120748382611f43565b92505060048401858303608087015261208d8382611f43565b925050600584015490506120a081611fd4565b6120ad60a0870182611fee565b50819250505092915050565b600060208201905081810360008301526120d38184611ffd565b905092915050565b60006120e6826115d0565b91506120f1836115d0565b925082820190508082111561210957612108611b34565b5b92915050565b60006c0100000000000000000000000082029050919050565b60006121338261210f565b9050919050565b600061214582612128565b9050919050565b61215d6121588261148f565b61213a565b82525050565b600061216f828461214c565b6014820191508190509291505056fea26469706673582212202e8e1f562c810b5add8f4d8b27e2608e66aea0fd2872e2fc7d995c4714d30c1864736f6c63430008110033",
  "immutableReferences": {},
  "source": "// SPDX-License-Identifier: GPL-3.0\npragma solidity ^0.8.15;\n\ncontract SupplyChain {\n\n\n    event ParcelAdd(Parcel parcel);\n\n    struct Sender {\n        address senderID;\n        string senderName;\n        string senderLocation;\n    }\n\n    struct Hub {\n        address hubID;\n        string hubName;\n        string hubLocation;\n    }\n\n    struct Parcel {\n        address sender;\n        address currentOwner;\n        address nextOwner;\n        string tracking;\n        string locationCreated;\n        bool delivered;\n    }\n\n    Parcel[] public allParcels;\n    Sender[] public allSenders;\n    Hub[] public allHubs;\n\n    address admin;\n    \n    uint256 senderCount = 0;\n    uint256 parcelCount = 0;\n    uint256 hubCount = 0;\n\n    constructor() {\n        admin = msg.sender;\n    }\n\n    modifier isAdmin {\n        require(admin == msg.sender, \"Access denied!\");\n        _;\n    }\nfunction registration(\n        string memory _roles, //make sure on the front end, the options during sign up are 'seller' , 'hub' , or 'delivery'\n        string memory _name,\n        string memory _location\n    ) public {\n        if (keccak256(abi.encodePacked(_roles)) ==keccak256(abi.encodePacked(\"sender\"))) {\n            allSenders.push(Sender({senderID:msg.sender,senderName:_name,senderLocation:_location}));\n        }\n        else if(keccak256(abi.encodePacked(_roles)) == keccak256(abi.encodePacked(\"hub\"))){\n            allHubs.push(Hub({hubID:msg.sender,hubName:_name,hubLocation:_location}));\n        }\n    }\n\n\n\n    function addParcel(string memory _trackingID, string memory _location, address _nextOwner) public  {      \n        allParcels.push(Parcel({sender:msg.sender,currentOwner:msg.sender,nextOwner:_nextOwner,tracking:_trackingID,locationCreated:_location,delivered:false}));\n        emit ParcelAdd(allParcels[parcelCount]);\n        parcelCount = parcelCount+1;\n\n    }\n\n    function changeofOwnership(string memory _trackingID, address  _nextOwner) public  {\n\n        for (uint256 i = 0; i < allParcels.length; i++) {\n            if (keccak256(abi.encodePacked(allParcels[i].tracking)) == keccak256(abi.encodePacked(_trackingID))) {\n                require(msg.sender == allParcels[i].nextOwner, \"Access Denied!\"); //check this comdition !!!\n                allParcels[i].nextOwner = address(_nextOwner);}\n\n        }\n\n    }\n\n\n    function viewParcelinfo(string memory _tracking) public returns(string memory, string memory, string memory, string memory, string memory, bool){\n        for (uint256 i = 0; i < allParcels.length; i++) {\n            if (keccak256(abi.encodePacked(allParcels[i].tracking)) == keccak256(abi.encodePacked(_tracking))) {\n                 string memory sender = getAddressName(allParcels[i].sender);\n                 string memory currentOwn = getAddressName(allParcels[i].currentOwner);\n                 string memory nextOwn = getAddressName(allParcels[i].nextOwner);\n\n\n\n                return (sender, currentOwn, nextOwn, allParcels[i].tracking, allParcels[i].locationCreated, allParcels[i].delivered);\n            }\n        }\n    }\n\n    function getAddressName(address _target)public returns(string memory){\n\n            for (uint256 i = 0; i < allParcels.length; i++) {\n            if (keccak256(abi.encodePacked(allSenders[i].senderID)) == keccak256(abi.encodePacked(_target))) {\n                return allSenders[i].senderName;\n            }\n            }\n\n            for (uint256 i = 0; i < allHubs.length; i++) {\n            if (keccak256(abi.encodePacked(allHubs[i].hubID)) == keccak256(abi.encodePacked(_target))) {\n                return allHubs[i].hubName;\n            }\n            }\n\n\n\n        \n    }\n}",
  "sourcePath": "/Users/canopus/Documents/GitHub/flutter_logistic_fatih1/contracts/SupplyChain.sol",
  "compiler": {
    "name": "solc",
    "version": "0.8.17+commit.8df45f5f.Emscripten.clang"
  },
  "schemaVersion": "3.4.11",
  "updatedAt": "2023-01-24T16:50:19.121Z",
  "devdoc": {
    "kind": "dev",
    "methods": {},
    "version": 1
  },
  "userdoc": {
    "kind": "user",
    "methods": {},
    "version": 1
  }
}