{
  "contractName": "SimpleStorage",
  "abi": [
    {
      "inputs": [],
      "stateMutability": "nonpayable",
      "type": "constructor"
    },
    {
      "anonymous": false,
      "inputs": [
        {
          "indexed": false,
          "internalType": "address",
          "name": "sender",
          "type": "address"
        },
        {
          "indexed": false,
          "internalType": "address",
          "name": "currentOwner",
          "type": "address"
        },
        {
          "indexed": false,
          "internalType": "string",
          "name": "tracking",
          "type": "string"
        },
        {
          "indexed": false,
          "internalType": "string",
          "name": "locationCreated",
          "type": "string"
        }
      ],
      "name": "AllParcelInformation",
      "type": "event"
    },
    {
      "anonymous": false,
      "inputs": [
        {
          "indexed": false,
          "internalType": "address",
          "name": "senderID",
          "type": "address"
        },
        {
          "indexed": false,
          "internalType": "string",
          "name": "senderName",
          "type": "string"
        },
        {
          "indexed": false,
          "internalType": "string",
          "name": "senderLocation",
          "type": "string"
        }
      ],
      "name": "AllSenderInformation",
      "type": "event"
    },
    {
      "inputs": [
        {
          "internalType": "uint256",
          "name": "",
          "type": "uint256"
        }
      ],
      "name": "allDelivery",
      "outputs": [
        {
          "internalType": "address",
          "name": "deliveryID",
          "type": "address"
        },
        {
          "internalType": "string",
          "name": "deliveryName",
          "type": "string"
        },
        {
          "internalType": "string",
          "name": "deliveryLocation",
          "type": "string"
        },
        {
          "internalType": "bool",
          "name": "registered",
          "type": "bool"
        }
      ],
      "stateMutability": "view",
      "type": "function"
    },
    {
      "inputs": [
        {
          "internalType": "uint256",
          "name": "",
          "type": "uint256"
        }
      ],
      "name": "allHubs",
      "outputs": [
        {
          "internalType": "address",
          "name": "hubID",
          "type": "address"
        },
        {
          "internalType": "string",
          "name": "hubName",
          "type": "string"
        },
        {
          "internalType": "string",
          "name": "hubLocation",
          "type": "string"
        },
        {
          "internalType": "bool",
          "name": "registered",
          "type": "bool"
        }
      ],
      "stateMutability": "view",
      "type": "function"
    },
    {
      "inputs": [
        {
          "internalType": "uint256",
          "name": "",
          "type": "uint256"
        }
      ],
      "name": "allParcels",
      "outputs": [
        {
          "internalType": "address",
          "name": "sender",
          "type": "address"
        },
        {
          "internalType": "address",
          "name": "currentOwner",
          "type": "address"
        },
        {
          "internalType": "address",
          "name": "nextOwner",
          "type": "address"
        },
        {
          "internalType": "string",
          "name": "tracking",
          "type": "string"
        },
        {
          "internalType": "string",
          "name": "locationCreated",
          "type": "string"
        },
        {
          "internalType": "bool",
          "name": "delivered",
          "type": "bool"
        }
      ],
      "stateMutability": "view",
      "type": "function"
    },
    {
      "inputs": [
        {
          "internalType": "uint256",
          "name": "",
          "type": "uint256"
        }
      ],
      "name": "allSenders",
      "outputs": [
        {
          "internalType": "address",
          "name": "senderID",
          "type": "address"
        },
        {
          "internalType": "string",
          "name": "senderName",
          "type": "string"
        },
        {
          "internalType": "string",
          "name": "senderLocation",
          "type": "string"
        },
        {
          "internalType": "bool",
          "name": "registered",
          "type": "bool"
        }
      ],
      "stateMutability": "view",
      "type": "function"
    },
    {
      "inputs": [
        {
          "internalType": "string",
          "name": "_roles",
          "type": "string"
        },
        {
          "internalType": "string",
          "name": "_name",
          "type": "string"
        },
        {
          "internalType": "string",
          "name": "_location",
          "type": "string"
        }
      ],
      "name": "registration",
      "outputs": [],
      "stateMutability": "nonpayable",
      "type": "function"
    },
    {
      "inputs": [
        {
          "internalType": "string",
          "name": "_trackingID",
          "type": "string"
        },
        {
          "internalType": "string",
          "name": "_location",
          "type": "string"
        },
        {
          "internalType": "address",
          "name": "_nextOwner",
          "type": "address"
        }
      ],
      "name": "addParcel",
      "outputs": [],
      "stateMutability": "nonpayable",
      "type": "function"
    },
    {
      "inputs": [
        {
          "internalType": "string",
          "name": "_trackingID",
          "type": "string"
        },
        {
          "internalType": "address",
          "name": "_nextOwner",
          "type": "address"
        }
      ],
      "name": "changeofOwnership",
      "outputs": [],
      "stateMutability": "nonpayable",
      "type": "function"
    },
    {
      "inputs": [
        {
          "internalType": "string",
          "name": "_trackingID",
          "type": "string"
        }
      ],
      "name": "delivery",
      "outputs": [],
      "stateMutability": "nonpayable",
      "type": "function"
    },
    {
      "inputs": [
        {
          "internalType": "string",
          "name": "_tracking",
          "type": "string"
        }
      ],
      "name": "viewParcelinfo",
      "outputs": [],
      "stateMutability": "nonpayable",
      "type": "function"
    },
    {
      "inputs": [],
      "name": "printAllSenders",
      "outputs": [],
      "stateMutability": "nonpayable",
      "type": "function"
    },
    {
      "inputs": [],
      "name": "printAllParcels",
      "outputs": [],
      "stateMutability": "nonpayable",
      "type": "function"
    }
  ],
  "bytecode": "0x6080604052600060055560006006556000600755600060085534801561002457600080fd5b50336000806101000a81548173ffffffffffffffffffffffffffffffffffffffff021916908373ffffffffffffffffffffffffffffffffffffffff16021790555061210a806100746000396000f3fe608060405234801561001057600080fd5b50600436106100a95760003560e01c806395b576311161007157806395b5763114610156578063ce2ad7461461018b578063d18f3982146101a7578063f0f1fcc9146101da578063f5e449da146101f6578063fa26fe3214610200576100a9565b806303bf33cb146100ae5780630753afdf146100ca578063240fa0f2146100e65780635fb0a418146100f05780638c00a13014610123575b600080fd5b6100c860048036038101906100c3919061160a565b61021c565b005b6100e460048036038101906100df9190611666565b61032d565b005b6100ee610720565b005b61010a60048036038101906101059190611743565b610886565b60405161011a9493929190611822565b60405180910390f35b61013d60048036038101906101389190611743565b610a03565b60405161014d9493929190611822565b60405180910390f35b610170600480360381019061016b9190611743565b610b80565b60405161018296959493929190611875565b60405180910390f35b6101a560048036038101906101a091906118e4565b610d49565b005b6101c160048036038101906101bc9190611743565b610f0e565b6040516101d19493929190611822565b60405180910390f35b6101f460048036038101906101ef919061196f565b61108b565b005b6101fe611239565b005b61021a6004803603810190610215919061196f565b611376565b005b600080600090505b6001805490508110156102c3578360405160200161024291906119f4565b604051602081830303815290604052805190602001206001828154811061026c5761026b611a0b565b5b906000526020600020906006020160030160405160200161028d9190611b32565b60405160208183030381529060405280519060200120036102b0578091506102c3565b80806102bb90611b78565b915050610224565b5081600182815481106102d9576102d8611a0b565b5b906000526020600020906006020160020160006101000a81548173ffffffffffffffffffffffffffffffffffffffff021916908373ffffffffffffffffffffffffffffffffffffffff160217905550505050565b60405160200161033c90611c0c565b604051602081830303815290604052805190602001208360405160200161036391906119f4565b604051602081830303815290604052805190602001200361047d57600260405180608001604052803373ffffffffffffffffffffffffffffffffffffffff16815260200184815260200183815260200160001515815250908060018154018082558091505060019003906000526020600020906004020160009091909190915060008201518160000160006101000a81548173ffffffffffffffffffffffffffffffffffffffff021916908373ffffffffffffffffffffffffffffffffffffffff160217905550602082015181600101908161043f9190611db8565b5060408201518160020190816104559190611db8565b5060608201518160030160006101000a81548160ff021916908315150217905550505061071b565b60405160200161048c90611ed6565b60405160208183030381529060405280519060200120836040516020016104b391906119f4565b60405160208183030381529060405280519060200120036105cd57600360405180608001604052803373ffffffffffffffffffffffffffffffffffffffff16815260200184815260200183815260200160001515815250908060018154018082558091505060019003906000526020600020906004020160009091909190915060008201518160000160006101000a81548173ffffffffffffffffffffffffffffffffffffffff021916908373ffffffffffffffffffffffffffffffffffffffff160217905550602082015181600101908161058f9190611db8565b5060408201518160020190816105a59190611db8565b5060608201518160030160006101000a81548160ff021916908315150217905550505061071a565b6040516020016105dc90611f37565b604051602081830303815290604052805190602001208360405160200161060391906119f4565b604051602081830303815290604052805190602001200361071957600460405180608001604052803373ffffffffffffffffffffffffffffffffffffffff16815260200184815260200183815260200160001515815250908060018154018082558091505060019003906000526020600020906004020160009091909190915060008201518160000160006101000a81548173ffffffffffffffffffffffffffffffffffffffff021916908373ffffffffffffffffffffffffffffffffffffffff16021790555060208201518160010190816106df9190611db8565b5060408201518160020190816106f59190611db8565b5060608201518160030160006101000a81548160ff02191690831515021790555050505b5b5b505050565b3373ffffffffffffffffffffffffffffffffffffffff1660008054906101000a900473ffffffffffffffffffffffffffffffffffffffff1673ffffffffffffffffffffffffffffffffffffffff16146107ae576040517f08c379a00000000000000000000000000000000000000000000000000000000081526004016107a590611f98565b60405180910390fd5b60005b600180549050811015610883576000600182815481106107d4576107d3611a0b565b5b906000526020600020906006020190507fa6ce4b6964702f03f3e9e3c23b6d4465fb84c12de8aada4a103aecbd62199b498160000160009054906101000a900473ffffffffffffffffffffffffffffffffffffffff168260010160009054906101000a900473ffffffffffffffffffffffffffffffffffffffff168360030184600401604051610867949392919061203c565b60405180910390a150808061087b90611b78565b9150506107b1565b50565b6003818154811061089657600080fd5b90600052602060002090600402016000915090508060000160009054906101000a900473ffffffffffffffffffffffffffffffffffffffff16908060010180546108df90611a69565b80601f016020809104026020016040519081016040528092919081815260200182805461090b90611a69565b80156109585780601f1061092d57610100808354040283529160200191610958565b820191906000526020600020905b81548152906001019060200180831161093b57829003601f168201915b50505050509080600201805461096d90611a69565b80601f016020809104026020016040519081016040528092919081815260200182805461099990611a69565b80156109e65780601f106109bb576101008083540402835291602001916109e6565b820191906000526020600020905b8154815290600101906020018083116109c957829003601f168201915b5050505050908060030160009054906101000a900460ff16905084565b60048181548110610a1357600080fd5b90600052602060002090600402016000915090508060000160009054906101000a900473ffffffffffffffffffffffffffffffffffffffff1690806001018054610a5c90611a69565b80601f0160208091040260200160405190810160405280929190818152602001828054610a8890611a69565b8015610ad55780601f10610aaa57610100808354040283529160200191610ad5565b820191906000526020600020905b815481529060010190602001808311610ab857829003601f168201915b505050505090806002018054610aea90611a69565b80601f0160208091040260200160405190810160405280929190818152602001828054610b1690611a69565b8015610b635780601f10610b3857610100808354040283529160200191610b63565b820191906000526020600020905b815481529060010190602001808311610b4657829003601f168201915b5050505050908060030160009054906101000a900460ff16905084565b60018181548110610b9057600080fd5b90600052602060002090600602016000915090508060000160009054906101000a900473ffffffffffffffffffffffffffffffffffffffff16908060010160009054906101000a900473ffffffffffffffffffffffffffffffffffffffff16908060020160009054906101000a900473ffffffffffffffffffffffffffffffffffffffff1690806003018054610c2590611a69565b80601f0160208091040260200160405190810160405280929190818152602001828054610c5190611a69565b8015610c9e5780601f10610c7357610100808354040283529160200191610c9e565b820191906000526020600020905b815481529060010190602001808311610c8157829003601f168201915b505050505090806004018054610cb390611a69565b80601f0160208091040260200160405190810160405280929190818152602001828054610cdf90611a69565b8015610d2c5780601f10610d0157610100808354040283529160200191610d2c565b820191906000526020600020905b815481529060010190602001808311610d0f57829003601f168201915b5050505050908060050160009054906101000a900460ff16905086565b60016040518060c001604052803373ffffffffffffffffffffffffffffffffffffffff1681526020013373ffffffffffffffffffffffffffffffffffffffff1681526020018373ffffffffffffffffffffffffffffffffffffffff16815260200185815260200184815260200160001515815250908060018154018082558091505060019003906000526020600020906006020160009091909190915060008201518160000160006101000a81548173ffffffffffffffffffffffffffffffffffffffff021916908373ffffffffffffffffffffffffffffffffffffffff16021790555060208201518160010160006101000a81548173ffffffffffffffffffffffffffffffffffffffff021916908373ffffffffffffffffffffffffffffffffffffffff16021790555060408201518160020160006101000a81548173ffffffffffffffffffffffffffffffffffffffff021916908373ffffffffffffffffffffffffffffffffffffffff1602179055506060820151816003019081610ed09190611db8565b506080820151816004019081610ee69190611db8565b5060a08201518160050160006101000a81548160ff0219169083151502179055505050505050565b60028181548110610f1e57600080fd5b90600052602060002090600402016000915090508060000160009054906101000a900473ffffffffffffffffffffffffffffffffffffffff1690806001018054610f6790611a69565b80601f0160208091040260200160405190810160405280929190818152602001828054610f9390611a69565b8015610fe05780601f10610fb557610100808354040283529160200191610fe0565b820191906000526020600020905b815481529060010190602001808311610fc357829003601f168201915b505050505090806002018054610ff590611a69565b80601f016020809104026020016040519081016040528092919081815260200182805461102190611a69565b801561106e5780601f106110435761010080835404028352916020019161106e565b820191906000526020600020905b81548152906001019060200180831161105157829003601f168201915b5050505050908060030160009054906101000a900460ff16905084565b60005b60018054905081101561123557816040516020016110ac91906119f4565b60405160208183030381529060405280519060200120600182815481106110d6576110d5611a0b565b5b90600052602060002090600602016003016040516020016110f79190611b32565b6040516020818303038152906040528051906020012003611222577fa6ce4b6964702f03f3e9e3c23b6d4465fb84c12de8aada4a103aecbd62199b496001828154811061114757611146611a0b565b5b906000526020600020906006020160000160009054906101000a900473ffffffffffffffffffffffffffffffffffffffff166001838154811061118d5761118c611a0b565b5b906000526020600020906006020160010160009054906101000a900473ffffffffffffffffffffffffffffffffffffffff16600184815481106111d3576111d2611a0b565b5b9060005260206000209060060201600301600185815481106111f8576111f7611a0b565b5b9060005260206000209060060201600401604051611219949392919061203c565b60405180910390a15b808061122d90611b78565b91505061108e565b5050565b3373ffffffffffffffffffffffffffffffffffffffff1660008054906101000a900473ffffffffffffffffffffffffffffffffffffffff1673ffffffffffffffffffffffffffffffffffffffff16146112c7576040517f08c379a00000000000000000000000000000000000000000000000000000000081526004016112be90611f98565b60405180910390fd5b60005b600554811015611373576000600282815481106112ea576112e9611a0b565b5b906000526020600020906004020190507fce4f269dc546cf78668bbff58bd8ecb07e07133ccc43a13592a413422e6068268160000160009054906101000a900473ffffffffffffffffffffffffffffffffffffffff1682600101836002016040516113579392919061208f565b60405180910390a150808061136b90611b78565b9150506112ca565b50565b60005b60018054905081101561144e578160405160200161139791906119f4565b60405160208183030381529060405280519060200120600182815481106113c1576113c0611a0b565b5b90600052602060002090600602016003016040516020016113e29190611b32565b604051602081830303815290604052805190602001200361143b57600180828154811061141257611411611a0b565b5b906000526020600020906006020160050160006101000a81548160ff0219169083151502179055505b808061144690611b78565b915050611379565b5050565b6000604051905090565b600080fd5b600080fd5b600080fd5b600080fd5b6000601f19601f8301169050919050565b7f4e487b7100000000000000000000000000000000000000000000000000000000600052604160045260246000fd5b6114b982611470565b810181811067ffffffffffffffff821117156114d8576114d7611481565b5b80604052505050565b60006114eb611452565b90506114f782826114b0565b919050565b600067ffffffffffffffff82111561151757611516611481565b5b61152082611470565b9050602081019050919050565b82818337600083830152505050565b600061154f61154a846114fc565b6114e1565b90508281526020810184848401111561156b5761156a61146b565b5b61157684828561152d565b509392505050565b600082601f83011261159357611592611466565b5b81356115a384826020860161153c565b91505092915050565b600073ffffffffffffffffffffffffffffffffffffffff82169050919050565b60006115d7826115ac565b9050919050565b6115e7816115cc565b81146115f257600080fd5b50565b600081359050611604816115de565b92915050565b600080604083850312156116215761162061145c565b5b600083013567ffffffffffffffff81111561163f5761163e611461565b5b61164b8582860161157e565b925050602061165c858286016115f5565b9150509250929050565b60008060006060848603121561167f5761167e61145c565b5b600084013567ffffffffffffffff81111561169d5761169c611461565b5b6116a98682870161157e565b935050602084013567ffffffffffffffff8111156116ca576116c9611461565b5b6116d68682870161157e565b925050604084013567ffffffffffffffff8111156116f7576116f6611461565b5b6117038682870161157e565b9150509250925092565b6000819050919050565b6117208161170d565b811461172b57600080fd5b50565b60008135905061173d81611717565b92915050565b6000602082840312156117595761175861145c565b5b60006117678482850161172e565b91505092915050565b611779816115cc565b82525050565b600081519050919050565b600082825260208201905092915050565b60005b838110156117b957808201518184015260208101905061179e565b838111156117c8576000848401525b50505050565b60006117d98261177f565b6117e3818561178a565b93506117f381856020860161179b565b6117fc81611470565b840191505092915050565b60008115159050919050565b61181c81611807565b82525050565b60006080820190506118376000830187611770565b818103602083015261184981866117ce565b9050818103604083015261185d81856117ce565b905061186c6060830184611813565b95945050505050565b600060c08201905061188a6000830189611770565b6118976020830188611770565b6118a46040830187611770565b81810360608301526118b681866117ce565b905081810360808301526118ca81856117ce565b90506118d960a0830184611813565b979650505050505050565b6000806000606084860312156118fd576118fc61145c565b5b600084013567ffffffffffffffff81111561191b5761191a611461565b5b6119278682870161157e565b935050602084013567ffffffffffffffff81111561194857611947611461565b5b6119548682870161157e565b9250506040611965868287016115f5565b9150509250925092565b6000602082840312156119855761198461145c565b5b600082013567ffffffffffffffff8111156119a3576119a2611461565b5b6119af8482850161157e565b91505092915050565b600081905092915050565b60006119ce8261177f565b6119d881856119b8565b93506119e881856020860161179b565b80840191505092915050565b6000611a0082846119c3565b915081905092915050565b7f4e487b7100000000000000000000000000000000000000000000000000000000600052603260045260246000fd5b7f4e487b7100000000000000000000000000000000000000000000000000000000600052602260045260246000fd5b60006002820490506001821680611a8157607f821691505b602082108103611a9457611a93611a3a565b5b50919050565b60008190508160005260206000209050919050565b60008154611abc81611a69565b611ac681866119b8565b94506001821660008114611ae15760018114611af657611b29565b60ff1983168652811515820286019350611b29565b611aff85611a9a565b60005b83811015611b2157815481890152600182019150602081019050611b02565b838801955050505b50505092915050565b6000611b3e8284611aaf565b915081905092915050565b7f4e487b7100000000000000000000000000000000000000000000000000000000600052601160045260246000fd5b6000611b838261170d565b91507fffffffffffffffffffffffffffffffffffffffffffffffffffffffffffffffff8203611bb557611bb4611b49565b5b600182019050919050565b7f73656e6465720000000000000000000000000000000000000000000000000000600082015250565b6000611bf66006836119b8565b9150611c0182611bc0565b600682019050919050565b6000611c1782611be9565b9150819050919050565b60006020601f8301049050919050565b600082821b905092915050565b600060088302611c6e7fffffffffffffffffffffffffffffffffffffffffffffffffffffffffffffffff82611c31565b611c788683611c31565b95508019841693508086168417925050509392505050565b6000819050919050565b6000611cb5611cb0611cab8461170d565b611c90565b61170d565b9050919050565b6000819050919050565b611ccf83611c9a565b611ce3611cdb82611cbc565b848454611c3e565b825550505050565b600090565b611cf8611ceb565b611d03818484611cc6565b505050565b5b81811015611d2757611d1c600082611cf0565b600181019050611d09565b5050565b601f821115611d6c57611d3d81611a9a565b611d4684611c21565b81016020851015611d55578190505b611d69611d6185611c21565b830182611d08565b50505b505050565b600082821c905092915050565b6000611d8f60001984600802611d71565b1980831691505092915050565b6000611da88383611d7e565b9150826002028217905092915050565b611dc18261177f565b67ffffffffffffffff811115611dda57611dd9611481565b5b611de48254611a69565b611def828285611d2b565b600060209050601f831160018114611e225760008415611e10578287015190505b611e1a8582611d9c565b865550611e82565b601f198416611e3086611a9a565b60005b82811015611e5857848901518255600182019150602085019450602081019050611e33565b86831015611e755784890151611e71601f891682611d7e565b8355505b6001600288020188555050505b505050505050565b7f6875620000000000000000000000000000000000000000000000000000000000600082015250565b6000611ec06003836119b8565b9150611ecb82611e8a565b600382019050919050565b6000611ee182611eb3565b9150819050919050565b7f64656c6976657279000000000000000000000000000000000000000000000000600082015250565b6000611f216008836119b8565b9150611f2c82611eeb565b600882019050919050565b6000611f4282611f14565b9150819050919050565b7f4163636573732064656e69656421000000000000000000000000000000000000600082015250565b6000611f82600e8361178a565b9150611f8d82611f4c565b602082019050919050565b60006020820190508181036000830152611fb181611f75565b9050919050565b60008154611fc581611a69565b611fcf818661178a565b94506001821660008114611fea576001811461200057612033565b60ff198316865281151560200286019350612033565b61200985611a9a565b60005b8381101561202b5781548189015260018201915060208101905061200c565b808801955050505b50505092915050565b60006080820190506120516000830187611770565b61205e6020830186611770565b81810360408301526120708185611fb8565b905081810360608301526120848184611fb8565b905095945050505050565b60006060820190506120a46000830186611770565b81810360208301526120b68185611fb8565b905081810360408301526120ca8184611fb8565b905094935050505056fea2646970667358221220d767efa55d59ae27a7b75d21c390a76b5c618e6a636300a07dc4d0748e78481f64736f6c634300080f0033",
  "immutableReferences": {},
  "source": "// SPDX-License-Identifier: GPL-3.0\npragma solidity ^0.8.15;\n\ncontract SimpleStorage {\n    event AllParcelInformation(\n        address sender,\n        address currentOwner,\n        string tracking,\n        string locationCreated\n    );\n\n    event AllSenderInformation(\n        address senderID,\n        string senderName,\n        string senderLocation\n    );\n\n    address admin;\n\n    struct Sender {\n        address senderID;\n        string senderName;\n        string senderLocation;\n        bool registered;\n    }\n\n    struct Hub {\n        address hubID;\n        string hubName;\n        string hubLocation;\n        bool registered;\n    }\n\n    struct Delivery {\n        address deliveryID;\n        string deliveryName;\n        string deliveryLocation;\n        bool registered;\n\n    }\n\n    struct Parcel {\n        address sender;\n        address currentOwner;\n        address nextOwner;\n        string tracking;\n        string locationCreated;\n        bool delivered;\n    }\n\n    Parcel[] public allParcels;\n    Sender[] public allSenders;\n    Hub[] public allHubs;\n    Delivery[] public allDelivery;\n\n\n    \n    uint256 senderCount = 0;\n    uint256 parcelCount = 0;\n    uint256 hubCount = 0;\n    uint256 deliveryCount = 0;\n\n    constructor() {\n        admin = msg.sender;\n    }\n\n    modifier isAdmin() {\n        require(admin == msg.sender, \"Access denied!\");\n        _;\n    }\n\n    modifier senderIsAllowed {\n    for(uint i = 0; i < allSenders.length; i++) {\n        if(msg.sender == allSenders[i].senderID) {\n        _;\n        }\n    }\n    revert();\n    }\n\n\n//change of ownership (done), verify user , delivery (done)\n\n\n    function registration(\n        string memory _roles, //make sure on the front end, the options during sign up are 'seller' , 'hub' , or 'delivery'\n        string memory _name,\n        string memory _location\n    ) public {\n        if (keccak256(abi.encodePacked(_roles)) ==keccak256(abi.encodePacked(\"sender\"))) {\n            allSenders.push(Sender({senderID:msg.sender,senderName:_name,senderLocation:_location, registered:false}));\n        }\n        else if(keccak256(abi.encodePacked(_roles)) == keccak256(abi.encodePacked(\"hub\"))){\n            allHubs.push(Hub({hubID:msg.sender,hubName:_name,hubLocation:_location,registered:false}));\n        }\n        else if(keccak256(abi.encodePacked(_roles)) == keccak256(abi.encodePacked(\"delivery\"))){\n            allDelivery.push(Delivery({deliveryID:msg.sender,deliveryName:_name,deliveryLocation:_location,registered:false}));\n        }\n    }\n\n\n\n    function addParcel(string memory _trackingID, string memory _location, address _nextOwner) public{      \n        allParcels.push(Parcel({sender:msg.sender,currentOwner:msg.sender,nextOwner:_nextOwner,tracking:_trackingID,locationCreated:_location,delivered:false}));\n    }\n\n    function changeofOwnership(string memory _trackingID, address  _nextOwner) public{\n        uint256 index;\n        for (uint256 i = 0; i < allParcels.length; i++) {\n            if (keccak256(abi.encodePacked(allParcels[i].tracking)) == keccak256(abi.encodePacked(_trackingID))) {\n                index = i;\n                break;\n        }\n    }\n        // Update the next owner of the parcel\n        allParcels[index].nextOwner = address(_nextOwner);\n\n    }\n\n    function delivery(string memory _trackingID) public {\n\n        for (uint256 i = 0; i < allParcels.length; i++) {\n            if (keccak256(abi.encodePacked(allParcels[i].tracking)) == keccak256(abi.encodePacked(_trackingID))) {\n                allParcels[i].delivered = true;\n            }\n        }\n\n    }\n\n    function viewParcelinfo(string memory _tracking) public {\n        for (uint256 i = 0; i < allParcels.length; i++) {\n            if (keccak256(abi.encodePacked(allParcels[i].tracking)) == keccak256(abi.encodePacked(_tracking))) {\n                emit AllParcelInformation(\n                allParcels[i].sender,\n                allParcels[i].currentOwner,\n                allParcels[i].tracking,\n                allParcels[i].locationCreated\n            );\n            }\n        }\n    }\n\n    function printAllSenders() public isAdmin {\n        for (uint256 i = 0; i < senderCount; i++) {\n            Sender storage sender = allSenders[i];\n            emit AllSenderInformation(\n                sender.senderID,\n                sender.senderName,\n                sender.senderLocation\n            );\n        }\n    }\n\n    function printAllParcels() public isAdmin {\n\n        for (uint i = 0; i < allParcels.length; i++) {\n        Parcel storage _parcel = allParcels[i];\n        emit AllParcelInformation(\n                _parcel.sender,\n                _parcel.currentOwner,\n                _parcel.tracking,\n                _parcel.locationCreated\n            );\n\n    }\n    }\n}\n",
  "sourcePath": "/Users/canopus/Documents/GitHub/SupplyChain_dApp/contracts/SupplyChain.sol",
  "compiler": {
    "name": "solc",
    "version": "0.8.15+commit.e14f2714.Emscripten.clang"
  },
  "schemaVersion": "3.4.11",
  "updatedAt": "2023-01-03T14:03:16.984Z",
  "devdoc": {
    "kind": "dev",
    "methods": {},
    "version": 1
  },
  "userdoc": {
    "kind": "user",
    "methods": {},
    "version": 1
  }
}