{
  "contractName": "SupplyChain",
  "abi": [
    {
      "inputs": [],
      "stateMutability": "nonpayable",
      "type": "constructor"
    },
    {
      "anonymous": false,
      "inputs": [
        {
          "indexed": false,
          "internalType": "address",
          "name": "sender",
          "type": "address"
        },
        {
          "indexed": false,
          "internalType": "string",
          "name": "tracking",
          "type": "string"
        },
        {
          "indexed": false,
          "internalType": "string",
          "name": "locationCreated",
          "type": "string"
        }
      ],
      "name": "AllParcelInformation",
      "type": "event"
    },
    {
      "inputs": [
        {
          "internalType": "string",
          "name": "_name",
          "type": "string"
        },
        {
          "internalType": "string",
          "name": "_location",
          "type": "string"
        }
      ],
      "name": "addSender",
      "outputs": [],
      "stateMutability": "nonpayable",
      "type": "function"
    },
    {
      "inputs": [
        {
          "internalType": "string",
          "name": "_trackingID",
          "type": "string"
        },
        {
          "internalType": "string",
          "name": "_location",
          "type": "string"
        }
      ],
      "name": "addParcel",
      "outputs": [],
      "stateMutability": "nonpayable",
      "type": "function"
    },
    {
      "inputs": [],
      "name": "printAllParcels",
      "outputs": [],
      "stateMutability": "nonpayable",
      "type": "function"
    }
  ],
  "bytecode": "0x6080604052600060035534801561001557600080fd5b50336000806101000a81548173ffffffffffffffffffffffffffffffffffffffff021916908373ffffffffffffffffffffffffffffffffffffffff160217905550610938806100656000396000f3fe608060405234801561001057600080fd5b50600436106100405760003560e01c8062858df214610045578063018e395b14610061578063240fa0f21461007d575b600080fd5b61005f600480360381019061005a91906105b9565b610087565b005b61007b600480360381019061007691906105b9565b610170565b005b61008561028e565b005b600060405180606001604052803373ffffffffffffffffffffffffffffffffffffffff1681526020018481526020018381525090508060026000600354815260200190815260200160002060008201518160000160006101000a81548173ffffffffffffffffffffffffffffffffffffffff021916908373ffffffffffffffffffffffffffffffffffffffff16021790555060208201518160010190805190602001906101359291906103bc565b5060408201518160020190805190602001906101529291906103bc565b509050506001600354610165919061066a565b600381905550505050565b3373ffffffffffffffffffffffffffffffffffffffff1660008054906101000a900473ffffffffffffffffffffffffffffffffffffffff1673ffffffffffffffffffffffffffffffffffffffff16146101fe576040517f08c379a00000000000000000000000000000000000000000000000000000000081526004016101f59061071d565b60405180910390fd5b600080604051806060016040528083815260200185815260200184815250905080600160008481526020019081526020016000206000820151816000015560208201518160010190805190602001906102589291906103bc565b5060408201518160020190805190602001906102759291906103bc565b50905050600182610286919061066a565b915050505050565b3373ffffffffffffffffffffffffffffffffffffffff1660008054906101000a900473ffffffffffffffffffffffffffffffffffffffff1673ffffffffffffffffffffffffffffffffffffffff161461031c576040517f08c379a00000000000000000000000000000000000000000000000000000000081526004016103139061071d565b60405180910390fd5b60005b6003548110156103b95760006002600083815260200190815260200160002090507fe0ed2035bb4b424e0c01b58564fa404e80004928e8c2dac606fb2d15047e89f48160000160009054906101000a900473ffffffffffffffffffffffffffffffffffffffff16826001018360020160405161039d93929190610874565b60405180910390a15080806103b1906108b9565b91505061031f565b50565b8280546103c8906107ad565b90600052602060002090601f0160209004810192826103ea5760008555610431565b82601f1061040357805160ff1916838001178555610431565b82800160010185558215610431579182015b82811115610430578251825591602001919060010190610415565b5b50905061043e9190610442565b5090565b5b8082111561045b576000816000905550600101610443565b5090565b6000604051905090565b600080fd5b600080fd5b600080fd5b600080fd5b6000601f19601f8301169050919050565b7f4e487b7100000000000000000000000000000000000000000000000000000000600052604160045260246000fd5b6104c68261047d565b810181811067ffffffffffffffff821117156104e5576104e461048e565b5b80604052505050565b60006104f861045f565b905061050482826104bd565b919050565b600067ffffffffffffffff8211156105245761052361048e565b5b61052d8261047d565b9050602081019050919050565b82818337600083830152505050565b600061055c61055784610509565b6104ee565b90508281526020810184848401111561057857610577610478565b5b61058384828561053a565b509392505050565b600082601f8301126105a05761059f610473565b5b81356105b0848260208601610549565b91505092915050565b600080604083850312156105d0576105cf610469565b5b600083013567ffffffffffffffff8111156105ee576105ed61046e565b5b6105fa8582860161058b565b925050602083013567ffffffffffffffff81111561061b5761061a61046e565b5b6106278582860161058b565b9150509250929050565b6000819050919050565b7f4e487b7100000000000000000000000000000000000000000000000000000000600052601160045260246000fd5b600061067582610631565b915061068083610631565b9250827fffffffffffffffffffffffffffffffffffffffffffffffffffffffffffffffff038211156106b5576106b461063b565b5b828201905092915050565b600082825260208201905092915050565b7f4163636573732064656e69656421000000000000000000000000000000000000600082015250565b6000610707600e836106c0565b9150610712826106d1565b602082019050919050565b60006020820190508181036000830152610736816106fa565b9050919050565b600073ffffffffffffffffffffffffffffffffffffffff82169050919050565b60006107688261073d565b9050919050565b6107788161075d565b82525050565b7f4e487b7100000000000000000000000000000000000000000000000000000000600052602260045260246000fd5b600060028204905060018216806107c557607f821691505b602082108114156107d9576107d861077e565b5b50919050565b60008190508160005260206000209050919050565b60008154610801816107ad565b61080b81866106c0565b9450600182166000811461082657600181146108385761086b565b60ff198316865260208601935061086b565b610841856107df565b60005b8381101561086357815481890152600182019150602081019050610844565b808801955050505b50505092915050565b6000606082019050610889600083018661076f565b818103602083015261089b81856107f4565b905081810360408301526108af81846107f4565b9050949350505050565b60006108c482610631565b91507fffffffffffffffffffffffffffffffffffffffffffffffffffffffffffffffff8214156108f7576108f661063b565b5b60018201905091905056fea264697066735822122065273412b0da709d0b703925888babfc2e2dfd957fc3485c67fe01faf097ac3864736f6c63430008080033",
  "immutableReferences": {},
  "source": "// SPDX-License-Identifier: GPL-3.0\npragma solidity ^0.8.8;\ncontract SupplyChain {\n\nevent AllParcelInformation(address sender, string tracking, string locationCreated);\n\naddress admin;\n\nstruct Sender{\nuint senderID;\nstring senderName;\nstring senderLocation;\n}\n\nstruct Parcel{\naddress sender;\nstring tracking;\nstring locationCreated;\n}\n\nstruct Hub{\naddress hubID;\nstring hubLocation;\n}\n\nmapping (uint => Sender) allSenders;\nmapping(uint => Parcel) allParcels;\nuint256 items=0;\n\nconstructor(){\n    admin = msg.sender;\n}\n\nmodifier isAdmin(){\n    require(admin == msg.sender, \"Access denied!\");\n    _;\n}\n\n\nfunction addSender(string memory _name, string memory _location) public isAdmin {\nuint256 sender_counter = 0;\nSender memory addsender = Sender({senderID: sender_counter,senderName: _name, senderLocation: _location});\nallSenders[sender_counter] = addsender;\nsender_counter += 1;\n}\n\n\nfunction addParcel(string memory _trackingID, string memory _location) public{\n    Parcel memory addparcel = Parcel({sender: msg.sender, tracking: _trackingID, locationCreated: _location });\n    allParcels[items]=addparcel;\n    items = items+1;\n}\n\n\n\n\n\nfunction printAllParcels() public isAdmin {\n  // Iterate over all the keys in the mapping\n  for (uint i = 0; i < items; i++) {\n    // Get the parcel at this key\n    Parcel storage parcel = allParcels[i];\n    // Emit an event with the parcel information\n    emit AllParcelInformation(parcel.sender, parcel.tracking, parcel.locationCreated);\n  }\n}\n\n\n}\n\n\n ",
  "sourcePath": "/Users/canopus/Documents/GitHub/SupplyChain_dApp/contracts/SupplyChain.sol",
  "compiler": {
    "name": "solc",
    "version": "0.8.8+commit.dddeac2f.Emscripten.clang"
  },
  "schemaVersion": "3.4.11",
  "updatedAt": "2023-01-01T08:13:52.591Z",
  "devdoc": {
    "kind": "dev",
    "methods": {},
    "version": 1
  },
  "userdoc": {
    "kind": "user",
    "methods": {},
    "version": 1
  }
}