{
  "contractName": "SupplyChain",
  "abi": [
    {
      "inputs": [],
      "stateMutability": "nonpayable",
      "type": "constructor"
    },
    {
      "anonymous": false,
      "inputs": [
        {
          "indexed": false,
          "internalType": "address",
          "name": "sender",
          "type": "address"
        },
        {
          "indexed": false,
          "internalType": "address",
          "name": "currentOwner",
          "type": "address"
        },
        {
          "indexed": false,
          "internalType": "string",
          "name": "tracking",
          "type": "string"
        },
        {
          "indexed": false,
          "internalType": "string",
          "name": "locationCreated",
          "type": "string"
        }
      ],
      "name": "AllParcelInformation",
      "type": "event"
    },
    {
      "anonymous": false,
      "inputs": [
        {
          "indexed": false,
          "internalType": "uint256",
          "name": "senderID",
          "type": "uint256"
        },
        {
          "indexed": false,
          "internalType": "string",
          "name": "senderName",
          "type": "string"
        },
        {
          "indexed": false,
          "internalType": "string",
          "name": "senderLocation",
          "type": "string"
        }
      ],
      "name": "AllSenderInformation",
      "type": "event"
    },
    {
      "inputs": [
        {
          "internalType": "uint256",
          "name": "",
          "type": "uint256"
        }
      ],
      "name": "allParcels",
      "outputs": [
        {
          "internalType": "address",
          "name": "sender",
          "type": "address"
        },
        {
          "internalType": "address",
          "name": "currentOwner",
          "type": "address"
        },
        {
          "internalType": "string",
          "name": "tracking",
          "type": "string"
        },
        {
          "internalType": "string",
          "name": "locationCreated",
          "type": "string"
        }
      ],
      "stateMutability": "view",
      "type": "function",
      "constant": true
    },
    {
      "inputs": [
        {
          "internalType": "uint256",
          "name": "",
          "type": "uint256"
        }
      ],
      "name": "allSenders",
      "outputs": [
        {
          "internalType": "uint256",
          "name": "senderID",
          "type": "uint256"
        },
        {
          "internalType": "string",
          "name": "senderName",
          "type": "string"
        },
        {
          "internalType": "string",
          "name": "senderLocation",
          "type": "string"
        }
      ],
      "stateMutability": "view",
      "type": "function",
      "constant": true
    },
    {
      "inputs": [
        {
          "internalType": "string",
          "name": "_roles",
          "type": "string"
        },
        {
          "internalType": "string",
          "name": "_name",
          "type": "string"
        },
        {
          "internalType": "string",
          "name": "_location",
          "type": "string"
        }
      ],
      "name": "registration",
      "outputs": [],
      "stateMutability": "nonpayable",
      "type": "function"
    },
    {
      "inputs": [
        {
          "internalType": "string",
          "name": "_trackingID",
          "type": "string"
        },
        {
          "internalType": "string",
          "name": "_location",
          "type": "string"
        }
      ],
      "name": "addParcel",
      "outputs": [],
      "stateMutability": "nonpayable",
      "type": "function"
    },
    {
      "inputs": [],
      "name": "printAllSenders",
      "outputs": [],
      "stateMutability": "nonpayable",
      "type": "function"
    },
    {
      "inputs": [],
      "name": "printAllParcels",
      "outputs": [],
      "stateMutability": "nonpayable",
      "type": "function"
    }
  ],
  "bytecode": "0x60806040526000600355600060045534801561001a57600080fd5b50336000806101000a81548173ffffffffffffffffffffffffffffffffffffffff021916908373ffffffffffffffffffffffffffffffffffffffff1602179055506112c58061006a6000396000f3fe608060405234801561001057600080fd5b50600436106100615760003560e01c8062858df2146100665780630753afdf14610082578063240fa0f21461009e57806395b57631146100a8578063d18f3982146100db578063f5e449da1461010d575b600080fd5b610080600480360381019061007b91906109dd565b610117565b005b61009c60048036038101906100979190610a55565b61024f565b005b6100a6610326565b005b6100c260048036038101906100bd9190610b32565b61048c565b6040516100d29493929190610c28565b60405180910390f35b6100f560048036038101906100f09190610b32565b61061c565b60405161010493929190610c8a565b60405180910390f35b610115610766565b005b600160405180608001604052803373ffffffffffffffffffffffffffffffffffffffff1681526020013373ffffffffffffffffffffffffffffffffffffffff16815260200184815260200183815250908060018154018082558091505060019003906000526020600020906004020160009091909190915060008201518160000160006101000a81548173ffffffffffffffffffffffffffffffffffffffff021916908373ffffffffffffffffffffffffffffffffffffffff16021790555060208201518160010160006101000a81548173ffffffffffffffffffffffffffffffffffffffff021916908373ffffffffffffffffffffffffffffffffffffffff16021790555060408201518160020190816102329190610edb565b5060608201518160030190816102489190610edb565b5050505050565b60405160200161025e90611004565b6040516020818303038152906040528051906020012083604051602001610285919061104a565b6040516020818303038152906040528051906020012003610321576002604051806060016040528060035481526020018481526020018381525090806001815401808255809150506001900390600052602060002090600302016000909190919091506000820151816000015560208201518160010190816103079190610edb565b50604082015181600201908161031d9190610edb565b5050505b505050565b3373ffffffffffffffffffffffffffffffffffffffff1660008054906101000a900473ffffffffffffffffffffffffffffffffffffffff1673ffffffffffffffffffffffffffffffffffffffff16146103b4576040517f08c379a00000000000000000000000000000000000000000000000000000000081526004016103ab906110ad565b60405180910390fd5b60005b600180549050811015610489576000600182815481106103da576103d96110cd565b5b906000526020600020906004020190507fa6ce4b6964702f03f3e9e3c23b6d4465fb84c12de8aada4a103aecbd62199b498160000160009054906101000a900473ffffffffffffffffffffffffffffffffffffffff168260010160009054906101000a900473ffffffffffffffffffffffffffffffffffffffff16836002018460030160405161046d9493929190611180565b60405180910390a150808061048190611202565b9150506103b7565b50565b6001818154811061049c57600080fd5b90600052602060002090600402016000915090508060000160009054906101000a900473ffffffffffffffffffffffffffffffffffffffff16908060010160009054906101000a900473ffffffffffffffffffffffffffffffffffffffff169080600201805461050b90610cfe565b80601f016020809104026020016040519081016040528092919081815260200182805461053790610cfe565b80156105845780601f1061055957610100808354040283529160200191610584565b820191906000526020600020905b81548152906001019060200180831161056757829003601f168201915b50505050509080600301805461059990610cfe565b80601f01602080910402602001604051908101604052809291908181526020018280546105c590610cfe565b80156106125780601f106105e757610100808354040283529160200191610612565b820191906000526020600020905b8154815290600101906020018083116105f557829003601f168201915b5050505050905084565b6002818154811061062c57600080fd5b906000526020600020906003020160009150905080600001549080600101805461065590610cfe565b80601f016020809104026020016040519081016040528092919081815260200182805461068190610cfe565b80156106ce5780601f106106a3576101008083540402835291602001916106ce565b820191906000526020600020905b8154815290600101906020018083116106b157829003601f168201915b5050505050908060020180546106e390610cfe565b80601f016020809104026020016040519081016040528092919081815260200182805461070f90610cfe565b801561075c5780601f106107315761010080835404028352916020019161075c565b820191906000526020600020905b81548152906001019060200180831161073f57829003601f168201915b5050505050905083565b3373ffffffffffffffffffffffffffffffffffffffff1660008054906101000a900473ffffffffffffffffffffffffffffffffffffffff1673ffffffffffffffffffffffffffffffffffffffff16146107f4576040517f08c379a00000000000000000000000000000000000000000000000000000000081526004016107eb906110ad565b60405180910390fd5b60005b60035481101561088057600060028281548110610817576108166110cd565b5b906000526020600020906003020190507ffa749fcf1acef8e526390bda6a33d3874d47e2ebecf9b03ce6dfc7e2f57708ea816000015482600101836002016040516108649392919061124a565b60405180910390a150808061087890611202565b9150506107f7565b50565b6000604051905090565b600080fd5b600080fd5b600080fd5b600080fd5b6000601f19601f8301169050919050565b7f4e487b7100000000000000000000000000000000000000000000000000000000600052604160045260246000fd5b6108ea826108a1565b810181811067ffffffffffffffff82111715610909576109086108b2565b5b80604052505050565b600061091c610883565b905061092882826108e1565b919050565b600067ffffffffffffffff821115610948576109476108b2565b5b610951826108a1565b9050602081019050919050565b82818337600083830152505050565b600061098061097b8461092d565b610912565b90508281526020810184848401111561099c5761099b61089c565b5b6109a784828561095e565b509392505050565b600082601f8301126109c4576109c3610897565b5b81356109d484826020860161096d565b91505092915050565b600080604083850312156109f4576109f361088d565b5b600083013567ffffffffffffffff811115610a1257610a11610892565b5b610a1e858286016109af565b925050602083013567ffffffffffffffff811115610a3f57610a3e610892565b5b610a4b858286016109af565b9150509250929050565b600080600060608486031215610a6e57610a6d61088d565b5b600084013567ffffffffffffffff811115610a8c57610a8b610892565b5b610a98868287016109af565b935050602084013567ffffffffffffffff811115610ab957610ab8610892565b5b610ac5868287016109af565b925050604084013567ffffffffffffffff811115610ae657610ae5610892565b5b610af2868287016109af565b9150509250925092565b6000819050919050565b610b0f81610afc565b8114610b1a57600080fd5b50565b600081359050610b2c81610b06565b92915050565b600060208284031215610b4857610b4761088d565b5b6000610b5684828501610b1d565b91505092915050565b600073ffffffffffffffffffffffffffffffffffffffff82169050919050565b6000610b8a82610b5f565b9050919050565b610b9a81610b7f565b82525050565b600081519050919050565b600082825260208201905092915050565b60005b83811015610bda578082015181840152602081019050610bbf565b83811115610be9576000848401525b50505050565b6000610bfa82610ba0565b610c048185610bab565b9350610c14818560208601610bbc565b610c1d816108a1565b840191505092915050565b6000608082019050610c3d6000830187610b91565b610c4a6020830186610b91565b8181036040830152610c5c8185610bef565b90508181036060830152610c708184610bef565b905095945050505050565b610c8481610afc565b82525050565b6000606082019050610c9f6000830186610c7b565b8181036020830152610cb18185610bef565b90508181036040830152610cc58184610bef565b9050949350505050565b7f4e487b7100000000000000000000000000000000000000000000000000000000600052602260045260246000fd5b60006002820490506001821680610d1657607f821691505b602082108103610d2957610d28610ccf565b5b50919050565b60008190508160005260206000209050919050565b60006020601f8301049050919050565b600082821b905092915050565b600060088302610d917fffffffffffffffffffffffffffffffffffffffffffffffffffffffffffffffff82610d54565b610d9b8683610d54565b95508019841693508086168417925050509392505050565b6000819050919050565b6000610dd8610dd3610dce84610afc565b610db3565b610afc565b9050919050565b6000819050919050565b610df283610dbd565b610e06610dfe82610ddf565b848454610d61565b825550505050565b600090565b610e1b610e0e565b610e26818484610de9565b505050565b5b81811015610e4a57610e3f600082610e13565b600181019050610e2c565b5050565b601f821115610e8f57610e6081610d2f565b610e6984610d44565b81016020851015610e78578190505b610e8c610e8485610d44565b830182610e2b565b50505b505050565b600082821c905092915050565b6000610eb260001984600802610e94565b1980831691505092915050565b6000610ecb8383610ea1565b9150826002028217905092915050565b610ee482610ba0565b67ffffffffffffffff811115610efd57610efc6108b2565b5b610f078254610cfe565b610f12828285610e4e565b600060209050601f831160018114610f455760008415610f33578287015190505b610f3d8582610ebf565b865550610fa5565b601f198416610f5386610d2f565b60005b82811015610f7b57848901518255600182019150602085019450602081019050610f56565b86831015610f985784890151610f94601f891682610ea1565b8355505b6001600288020188555050505b505050505050565b600081905092915050565b7f73656e6465720000000000000000000000000000000000000000000000000000600082015250565b6000610fee600683610fad565b9150610ff982610fb8565b600682019050919050565b600061100f82610fe1565b9150819050919050565b600061102482610ba0565b61102e8185610fad565b935061103e818560208601610bbc565b80840191505092915050565b60006110568284611019565b915081905092915050565b7f4163636573732064656e69656421000000000000000000000000000000000000600082015250565b6000611097600e83610bab565b91506110a282611061565b602082019050919050565b600060208201905081810360008301526110c68161108a565b9050919050565b7f4e487b7100000000000000000000000000000000000000000000000000000000600052603260045260246000fd5b6000815461110981610cfe565b6111138186610bab565b9450600182166000811461112e576001811461114457611177565b60ff198316865281151560200286019350611177565b61114d85610d2f565b60005b8381101561116f57815481890152600182019150602081019050611150565b808801955050505b50505092915050565b60006080820190506111956000830187610b91565b6111a26020830186610b91565b81810360408301526111b481856110fc565b905081810360608301526111c881846110fc565b905095945050505050565b7f4e487b7100000000000000000000000000000000000000000000000000000000600052601160045260246000fd5b600061120d82610afc565b91507fffffffffffffffffffffffffffffffffffffffffffffffffffffffffffffffff820361123f5761123e6111d3565b5b600182019050919050565b600060608201905061125f6000830186610c7b565b818103602083015261127181856110fc565b9050818103604083015261128581846110fc565b905094935050505056fea2646970667358221220ac49a2be66646c50c7b6ac645b1ee639e26dc88950d85b334ce25f25d9d5eaa064736f6c634300080f0033",
  "immutableReferences": {},
  "source": "// SPDX-License-Identifier: GPL-3.0\npragma solidity ^0.8.15;\n\ncontract SupplyChain {\n    event AllParcelInformation(\n        address sender,\n        address currentOwner,\n        string tracking,\n        string locationCreated\n    );\n\n    event AllSenderInformation(\n        uint256 senderID,\n        string senderName,\n        string senderLocation\n    );\n\n    address admin;\n\n    struct Sender {\n        uint256 senderID;\n        string senderName;\n        string senderLocation;\n    }\n\n    struct Hub {\n        address hubID;\n        string hubName;\n        string hubLocation;\n    }\n\n    struct Delivery {\n        address deliveryID;\n        string deliveryName;\n        string deliveryLocation;\n    }\n\n    struct Parcel {\n        address sender;\n        address currentOwner;\n        string tracking;\n        string locationCreated;\n    }\n\n    Parcel[] public allParcels;\n    Sender[] public allSenders;\n\n    uint256 senderCount = 0;\n    uint256 parcelCount = 0;\n\n    constructor() {\n        admin = msg.sender;\n    }\n\n    modifier isAdmin() {\n        require(admin == msg.sender, \"Access denied!\");\n        _;\n    }\n\n    function registration(\n        string memory _roles, //make sure on the front end, the options during sign up are 'seller' , 'hub' , or 'delivery'\n        string memory _name,\n        string memory _location\n    ) public {\n        if (\n            keccak256(abi.encodePacked(_roles)) ==\n            keccak256(abi.encodePacked(\"sender\"))\n        ) {\n            allSenders.push(\n                Sender({\n                    senderID: senderCount,\n                    senderName: _name,\n                    senderLocation: _location\n                })\n            );\n        }\n    }\n\n    function addParcel(string memory _trackingID, string memory _location)\n        public\n    {\n        allParcels.push(\n            Parcel({\n                sender: msg.sender,\n                currentOwner: msg.sender,\n                tracking: _trackingID,\n                locationCreated: _location\n            })\n        );\n    }\n\n    function printAllSenders() public isAdmin {\n        for (uint256 i = 0; i < senderCount; i++) {\n            Sender storage sender = allSenders[i];\n            emit AllSenderInformation(\n                sender.senderID,\n                sender.senderName,\n                sender.senderLocation\n            );\n        }\n    }\n\n    function printAllParcels() public isAdmin {\n        for (uint256 i = 0; i < allParcels.length; i++) {\n            Parcel storage _parcel = allParcels[i];\n            emit AllParcelInformation(\n                _parcel.sender,\n                _parcel.currentOwner,\n                _parcel.tracking,\n                _parcel.locationCreated\n            );\n        }\n    }\n}\n",
  "sourcePath": "/Users/canopus/Documents/GitHub/SupplyChain_dApp/contracts/SupplyChain.sol",
  "compiler": {
    "name": "solc",
    "version": "0.8.15+commit.e14f2714.Emscripten.clang"
  },
  "schemaVersion": "3.4.11",
  "updatedAt": "2023-01-02T04:43:40.288Z",
  "networkType": "ethereum",
  "devdoc": {
    "kind": "dev",
    "methods": {},
    "version": 1
  },
  "userdoc": {
    "kind": "user",
    "methods": {},
    "version": 1
  }
}